{
  "address": "0xC0B99B20D4c8711dE96c641A8b4EEB3d750eF3f0",
  "abi": [
    {
      "inputs": [
        {
          "internalType": "address",
          "name": "token_",
          "type": "address"
        },
        {
          "internalType": "bytes32",
          "name": "merkleRoot_",
          "type": "bytes32"
        }
      ],
      "stateMutability": "nonpayable",
      "type": "constructor"
    },
    {
      "anonymous": false,
      "inputs": [
        {
          "indexed": false,
          "internalType": "uint256",
          "name": "index",
          "type": "uint256"
        },
        {
          "indexed": false,
          "internalType": "uint256",
          "name": "amount",
          "type": "uint256"
        },
        {
          "indexed": true,
          "internalType": "address",
          "name": "airdropRecipient",
          "type": "address"
        },
        {
          "indexed": true,
          "internalType": "address",
          "name": "tokenReceiver",
          "type": "address"
        },
        {
          "indexed": true,
          "internalType": "uint256",
          "name": "week",
          "type": "uint256"
        }
      ],
      "name": "Claimed",
      "type": "event"
    },
    {
      "anonymous": false,
      "inputs": [
        {
          "indexed": true,
          "internalType": "bytes32",
          "name": "merkleRoot",
          "type": "bytes32"
        },
        {
          "indexed": true,
          "internalType": "uint32",
          "name": "week",
          "type": "uint32"
        }
      ],
      "name": "MerkleRootUpdated",
      "type": "event"
    },
    {
      "anonymous": false,
      "inputs": [
        {
          "indexed": true,
          "internalType": "address",
          "name": "previousOwner",
          "type": "address"
        },
        {
          "indexed": true,
          "internalType": "address",
          "name": "newOwner",
          "type": "address"
        }
      ],
      "name": "OwnershipTransferred",
      "type": "event"
    },
    {
      "inputs": [],
      "name": "CLAIM_TYPEHASH",
      "outputs": [
        {
          "internalType": "bytes32",
          "name": "",
          "type": "bytes32"
        }
      ],
      "stateMutability": "view",
      "type": "function"
    },
    {
      "inputs": [],
      "name": "DOMAIN_TYPEHASH",
      "outputs": [
        {
          "internalType": "bytes32",
          "name": "",
          "type": "bytes32"
        }
      ],
      "stateMutability": "view",
      "type": "function"
    },
    {
      "inputs": [],
      "name": "NAME",
      "outputs": [
        {
          "internalType": "string",
          "name": "",
          "type": "string"
        }
      ],
      "stateMutability": "view",
      "type": "function"
    },
    {
      "inputs": [
        {
          "internalType": "uint256",
          "name": "index",
          "type": "uint256"
        },
        {
          "internalType": "address",
          "name": "account",
          "type": "address"
        },
        {
          "internalType": "uint256",
          "name": "amount",
          "type": "uint256"
        },
        {
          "internalType": "bytes32[]",
          "name": "merkleProof",
          "type": "bytes32[]"
        }
      ],
      "name": "claim",
      "outputs": [],
      "stateMutability": "nonpayable",
      "type": "function"
    },
    {
      "inputs": [],
      "name": "claimOwnership",
      "outputs": [],
      "stateMutability": "nonpayable",
      "type": "function"
    },
    {
      "inputs": [
        {
          "internalType": "uint256",
          "name": "index",
          "type": "uint256"
        },
        {
          "internalType": "uint256",
          "name": "amount",
          "type": "uint256"
        },
        {
          "internalType": "bytes32[]",
          "name": "merkleProof",
          "type": "bytes32[]"
        },
        {
          "internalType": "address",
          "name": "recipient",
          "type": "address"
        },
        {
          "internalType": "uint8",
          "name": "v",
          "type": "uint8"
        },
        {
          "internalType": "bytes32",
          "name": "r",
          "type": "bytes32"
        },
        {
          "internalType": "bytes32",
          "name": "s",
          "type": "bytes32"
        }
      ],
      "name": "claimTo",
      "outputs": [],
      "stateMutability": "nonpayable",
      "type": "function"
    },
    {
      "inputs": [],
      "name": "freeze",
      "outputs": [],
      "stateMutability": "nonpayable",
      "type": "function"
    },
    {
      "inputs": [],
      "name": "frozen",
      "outputs": [
        {
          "internalType": "bool",
          "name": "",
          "type": "bool"
        }
      ],
      "stateMutability": "view",
      "type": "function"
    },
    {
      "inputs": [
        {
          "internalType": "uint256",
          "name": "index",
          "type": "uint256"
        }
      ],
      "name": "isClaimed",
      "outputs": [
        {
          "internalType": "bool",
          "name": "",
          "type": "bool"
        }
      ],
      "stateMutability": "view",
      "type": "function"
    },
    {
      "inputs": [],
      "name": "merkleRoot",
      "outputs": [
        {
          "internalType": "bytes32",
          "name": "",
          "type": "bytes32"
        }
      ],
      "stateMutability": "view",
      "type": "function"
    },
    {
      "inputs": [],
      "name": "owner",
      "outputs": [
        {
          "internalType": "address",
          "name": "",
          "type": "address"
        }
      ],
      "stateMutability": "view",
      "type": "function"
    },
    {
      "inputs": [],
      "name": "pendingOwner",
      "outputs": [
        {
          "internalType": "address",
          "name": "",
          "type": "address"
        }
      ],
      "stateMutability": "view",
      "type": "function"
    },
    {
      "inputs": [],
      "name": "token",
      "outputs": [
        {
          "internalType": "address",
          "name": "",
          "type": "address"
        }
      ],
      "stateMutability": "view",
      "type": "function"
    },
    {
      "inputs": [
        {
          "internalType": "address",
          "name": "",
          "type": "address"
        }
      ],
      "name": "totalClaimed",
      "outputs": [
        {
          "internalType": "uint256",
          "name": "",
          "type": "uint256"
        }
      ],
      "stateMutability": "view",
      "type": "function"
    },
    {
      "inputs": [
        {
          "internalType": "address",
          "name": "newOwner",
          "type": "address"
        },
        {
          "internalType": "bool",
          "name": "direct",
          "type": "bool"
        },
        {
          "internalType": "bool",
          "name": "renounce",
          "type": "bool"
        }
      ],
      "name": "transferOwnership",
      "outputs": [],
      "stateMutability": "nonpayable",
      "type": "function"
    },
    {
      "inputs": [],
      "name": "unfreeze",
      "outputs": [],
      "stateMutability": "nonpayable",
      "type": "function"
    },
    {
      "inputs": [
        {
          "internalType": "bytes32",
          "name": "_merkleRoot",
          "type": "bytes32"
        }
      ],
      "name": "updateMerkleRoot",
      "outputs": [],
      "stateMutability": "nonpayable",
      "type": "function"
    },
    {
      "inputs": [],
      "name": "week",
      "outputs": [
        {
          "internalType": "uint32",
          "name": "",
          "type": "uint32"
        }
      ],
      "stateMutability": "view",
      "type": "function"
    }
  ],
  "transactionHash": "0xb1ba167028014cddb4390fa47e2560da093541b0eceec2337c4e7358000f064e",
  "args": [
    "0x3066818837c5e6ed6601bd5a91b0762877a6b731",
    "0x59de428a13130f79ddd1c3e8705291647e1e6265b840e8978ab169f8eb067436"
  ],
  "solcInputHash": "5947adfc028f23192e147724dbf45f0a",
  "bytecode": "0x60a060405234801561001057600080fd5b506040516112e73803806112e78339818101604052604081101561003357600080fd5b508051602090910151600080546001600160a01b0319163390811782556040519091907f8be0079c531659141344cd1fd0a4f28419497f9722a3daafe3b4186f6b6457e0908290a36001600160a01b0382166100d6576040805162461bcd60e51b815260206004820181905260248201527f4d65726b6c654469737472696275746f723a20696e76616c696420746f6b656e604482015290519081900360640190fd5b606082901b6001600160601b0319166080526002556003805464ffffffffff191690556001600160a01b03166111c961011e60003980610b4f5280610c3b52506111c96000f3fe608060405234801561001057600080fd5b50600436106101165760003560e01c80636a28f000116100a2578063a3f4df7e11610071578063a3f4df7e146102ba578063cadb9b8d14610337578063e30c3978146103cf578063ef5d9ae8146103d7578063fc0c546a146103fd57610116565b80636a28f000146102695780636b0509b1146102715780638da5cb5b146102795780639e34070f1461029d57610116565b80632eb4a7ab116100e95780632eb4a7ab146102135780634783f0ef1461021b5780634995b458146102385780634e71e0c81461025957806362a5af3b1461026157610116565b8063054f7d9c1461011b578063078dfbe71461013757806320606b701461016f5780632e7ba6ef14610189575b600080fd5b610123610405565b604080519115158252519081900360200190f35b61016d6004803603606081101561014d57600080fd5b506001600160a01b03813516906020810135151590604001351515610415565b005b61017761053f565b60408051918252519081900360200190f35b61016d6004803603608081101561019f57600080fd5b8135916001600160a01b036020820135169160408201359190810190608081016060820135600160201b8111156101d557600080fd5b8201836020820111156101e757600080fd5b803590602001918460208302840111600160201b8311171561020857600080fd5b50909250905061055a565b6101776105fd565b61016d6004803603602081101561023157600080fd5b5035610603565b6102406106ec565b6040805163ffffffff9092168252519081900360200190f35b61016d6106f8565b61016d6107ba565b61016d61081d565b61017761087a565b610281610895565b604080516001600160a01b039092168252519081900360200190f35b610123600480360360208110156102b357600080fd5b50356108a4565b6102c26108dd565b6040805160208082528351818301528351919283929083019185019080838360005b838110156102fc5781810151838201526020016102e4565b50505050905090810190601f1680156103295780820380516001836020036101000a031916815260200191505b509250505060405180910390f35b61016d600480360360e081101561034d57600080fd5b813591602081013591810190606081016040820135600160201b81111561037357600080fd5b82018360208201111561038557600080fd5b803590602001918460208302840111600160201b831117156103a657600080fd5b91935091506001600160a01b038135169060ff602082013516906040810135906060013561090f565b610281610b2c565b610177600480360360208110156103ed57600080fd5b50356001600160a01b0316610b3b565b610281610b4d565b600354600160201b900460ff1681565b6000546001600160a01b03163314610462576040805162461bcd60e51b81526020600482018190526024820152600080516020611174833981519152604482015290519081900360640190fd5b811561051e576001600160a01b03831615158061047c5750805b6104c5576040805162461bcd60e51b81526020600482015260156024820152744f776e61626c653a207a65726f206164647265737360581b604482015290519081900360640190fd5b600080546040516001600160a01b03808716939216917f8be0079c531659141344cd1fd0a4f28419497f9722a3daafe3b4186f6b6457e091a3600080546001600160a01b0319166001600160a01b03851617905561053a565b600180546001600160a01b0319166001600160a01b0385161790555b505050565b60405180604361113182396043019050604051809103902081565b600354600160201b900460ff16156105a35760405162461bcd60e51b815260040180806020018281038252602681526020018061105c6026913960400191505060405180910390fd5b6105ac856108a4565b156105e85760405162461bcd60e51b8152600401808060200182810382526028815260200180610ff36028913960400191505060405180910390fd5b6105f6858586868686610b71565b5050505050565b60025481565b6000546001600160a01b03163314610650576040805162461bcd60e51b81526020600482018190526024820152600080516020611174833981519152604482015290519081900360640190fd5b600354600160201b900460ff166106985760405162461bcd60e51b81526004018080602001828103825260278152602001806110a46027913960400191505060405180910390fd5b6003805463ffffffff198116600163ffffffff9283160182161791829055600283905560405191169082907f1bed04c7cfb61e9a21d36517a6ed73b90844dc1ea8a74ce9f96ee2599be0db3b90600090a350565b60035463ffffffff1681565b6001546001600160a01b0316338114610758576040805162461bcd60e51b815260206004820181905260248201527f4f776e61626c653a2063616c6c657220213d2070656e64696e67206f776e6572604482015290519081900360640190fd5b600080546040516001600160a01b03808516939216917f8be0079c531659141344cd1fd0a4f28419497f9722a3daafe3b4186f6b6457e091a3600080546001600160a01b039092166001600160a01b0319928316179055600180549091169055565b6000546001600160a01b03163314610807576040805162461bcd60e51b81526020600482018190526024820152600080516020611174833981519152604482015290519081900360640190fd5b6003805464ff000000001916600160201b179055565b6000546001600160a01b0316331461086a576040805162461bcd60e51b81526020600482018190526024820152600080516020611174833981519152604482015290519081900360640190fd5b6003805464ff0000000019169055565b60405180604161101b82396041019050604051809103902081565b6000546001600160a01b031681565b60035463ffffffff16600090815260046020908152604080832061010085048452909152902054600160ff9092169190911b9081161490565b604051806040016040528060168152602001752837b63ca6b0b935b2ba102234b9ba3934b13aba37b960511b81525081565b600354600160201b900460ff16156109585760405162461bcd60e51b815260040180806020018281038252602681526020018061105c6026913960400191505060405180910390fd5b610961886108a4565b1561099d5760405162461bcd60e51b8152600401808060200182810382526028815260200180610ff36028913960400191505060405180910390fd5b60006040518080611131604391396040805191829003604301822082820190915260168252752837b63ca6b0b935b2ba102234b9ba3934b13aba37b960511b60209092019190915290507f7e8aa9db4fb13c5a2970c4b1df97977851593542afa27d943b1f3a0c38c0127e610a10610d91565b3060405160200180858152602001848152602001838152602001826001600160a01b03166001600160a01b031681526020019450505050506040516020818303038152906040528051906020012090506000604051808061101b60419139604080519182900360410182206003546020808501929092526001600160a01b038b1684840152606084018e905263ffffffff16608084015260a08084018f90528251808503909101815260c08401835280519082012061190160f01b60e085015260e2840187905261010280850182905283518086039091018152610122909401909252825192019190912090925090506000610b0e82888888610d95565b9050610b1e8c828a8e8e8e610b71565b505050505050505050505050565b6001546001600160a01b031681565b60056020526000908152604090205481565b7f000000000000000000000000000000000000000000000000000000000000000081565b6040805160208082018990526bffffffffffffffffffffffff19606089901b1682840152605480830187905283518084039091018152607483018085528151918301919091206094928602808501840190955285825293610bf593919287928792839290910190849080828437600092019190915250506002549150849050610f0f565b610c305760405162461bcd60e51b81526004018080602001828103825260218152602001806110cb6021913960400191505060405180910390fd5b610c3987610fb8565b7f00000000000000000000000000000000000000000000000000000000000000006001600160a01b031663a9059cbb86866040518363ffffffff1660e01b815260040180836001600160a01b03166001600160a01b0316815260200182815260200192505050602060405180830381600087803b158015610cb957600080fd5b505af1158015610ccd573d6000803e3d6000fd5b505050506040513d6020811015610ce357600080fd5b5051610d205760405162461bcd60e51b81526004018080602001828103825260238152602001806110ec6023913960400191505060405180910390fd5b6001600160a01b0380871660008181526005602090815260409182902080548901905560035482518c8152918201899052825163ffffffff909116948a1693927ff960c21aca9260721d7642bfc1e7e7f5e4e20cd2bd47ad9bc2d1f5309eb89489928290030190a450505050505050565b4690565b60007f7fffffffffffffffffffffffffffffff5d576e7357a4501ddfe92f46681b20a0821115610df65760405162461bcd60e51b81526004018080602001828103825260228152602001806110826022913960400191505060405180910390fd5b8360ff16601b1480610e0b57508360ff16601c145b610e465760405162461bcd60e51b815260040180806020018281038252602281526020018061110f6022913960400191505060405180910390fd5b604080516000808252602080830180855289905260ff88168385015260608301879052608083018690529251909260019260a080820193601f1981019281900390910190855afa158015610e9e573d6000803e3d6000fd5b5050604051601f1901519150506001600160a01b038116610f06576040805162461bcd60e51b815260206004820152601860248201527f45434453413a20696e76616c6964207369676e61747572650000000000000000604482015290519081900360640190fd5b95945050505050565b600081815b8551811015610fad576000868281518110610f2b57fe5b60200260200101519050808311610f725782816040516020018083815260200182815260200192505050604051602081830303815290604052805190602001209250610fa4565b808360405160200180838152602001828152602001925050506040516020818303038152906040528051906020012092505b50600101610f14565b509092149392505050565b60035463ffffffff1660009081526004602090815260408083206101008504845290915290208054600160ff9093169290921b909117905556fe4d65726b6c654469737472696275746f723a2044726f7020616c726561647920636c61696d65642e436c61696d286164647265737320726563697069656e742c75696e7432353620616d6f756e742c75696e743332207765656b2c75696e7432353620696e646578294d65726b6c654469737472696275746f723a20436c61696d696e672069732066726f7a656e2e45434453413a20696e76616c6964207369676e6174757265202773272076616c75654d65726b6c654469737472696275746f723a20436f6e7472616374206e6f742066726f7a656e2e4d65726b6c654469737472696275746f723a20496e76616c69642070726f6f662e4d65726b6c654469737472696275746f723a205472616e73666572206661696c65642e45434453413a20696e76616c6964207369676e6174757265202776272076616c7565454950373132446f6d61696e28737472696e67206e616d652c75696e7432353620636861696e49642c6164647265737320766572696679696e67436f6e7472616374294f776e61626c653a2063616c6c6572206973206e6f7420746865206f776e6572a26469706673582212200a77e00f3454d6f207f57bf66cf0f5a9f83462540232ef032773e9ef6a14015564736f6c63430006090033",
  "devdoc": {
    "methods": {}
  },
  "userdoc": {
    "methods": {}
  },
  "storageLayout": {
    "storage": [
      {
        "astId": 1568,
        "contract": "contracts/test/UMA_MerkleDistributor.sol:UMA_MerkleDistributor",
        "label": "owner",
        "offset": 0,
        "slot": "0",
        "type": "t_address"
      },
      {
        "astId": 1570,
        "contract": "contracts/test/UMA_MerkleDistributor.sol:UMA_MerkleDistributor",
        "label": "pendingOwner",
        "offset": 0,
        "slot": "1",
        "type": "t_address"
      },
      {
        "astId": 1905,
        "contract": "contracts/test/UMA_MerkleDistributor.sol:UMA_MerkleDistributor",
        "label": "merkleRoot",
        "offset": 0,
        "slot": "2",
        "type": "t_bytes32"
      },
      {
        "astId": 1908,
        "contract": "contracts/test/UMA_MerkleDistributor.sol:UMA_MerkleDistributor",
        "label": "week",
        "offset": 0,
        "slot": "3",
        "type": "t_uint32"
      },
      {
        "astId": 1911,
        "contract": "contracts/test/UMA_MerkleDistributor.sol:UMA_MerkleDistributor",
        "label": "frozen",
        "offset": 4,
        "slot": "3",
        "type": "t_bool"
      },
      {
        "astId": 1917,
        "contract": "contracts/test/UMA_MerkleDistributor.sol:UMA_MerkleDistributor",
        "label": "claimedBitMap",
        "offset": 0,
        "slot": "4",
        "type": "t_mapping(t_uint256,t_mapping(t_uint256,t_uint256))"
      },
      {
        "astId": 1921,
        "contract": "contracts/test/UMA_MerkleDistributor.sol:UMA_MerkleDistributor",
        "label": "totalClaimed",
        "offset": 0,
        "slot": "5",
        "type": "t_mapping(t_address,t_uint256)"
      }
    ],
    "types": {
      "t_address": {
        "encoding": "inplace",
        "label": "address",
        "numberOfBytes": "20"
      },
      "t_bool": {
        "encoding": "inplace",
        "label": "bool",
        "numberOfBytes": "1"
      },
      "t_bytes32": {
        "encoding": "inplace",
        "label": "bytes32",
        "numberOfBytes": "32"
      },
      "t_mapping(t_address,t_uint256)": {
        "encoding": "mapping",
        "key": "t_address",
        "label": "mapping(address => uint256)",
        "numberOfBytes": "32",
        "value": "t_uint256"
      },
      "t_mapping(t_uint256,t_mapping(t_uint256,t_uint256))": {
        "encoding": "mapping",
        "key": "t_uint256",
        "label": "mapping(uint256 => mapping(uint256 => uint256))",
        "numberOfBytes": "32",
        "value": "t_mapping(t_uint256,t_uint256)"
      },
      "t_mapping(t_uint256,t_uint256)": {
        "encoding": "mapping",
        "key": "t_uint256",
        "label": "mapping(uint256 => uint256)",
        "numberOfBytes": "32",
        "value": "t_uint256"
      },
      "t_uint256": {
        "encoding": "inplace",
        "label": "uint256",
        "numberOfBytes": "32"
      },
      "t_uint32": {
        "encoding": "inplace",
        "label": "uint32",
        "numberOfBytes": "4"
      }
    }
  }
}